S00B00004750532E737265632F
S11300000C943E000C9450000C9450000C9450003E
S11300100C9450000C9450000C9450000C9450001C
S11300200C9450000C9450000C9450000C9450000C
S11300300C9450000C9450000C9450000C945000FC
S11300400C9450000C9450000C9450000C945000EC
S11300500C9450000C9450000C9450000C945000DC
S11300600C9450000C9450000C9450000C945000CC
S11300700C9466000C9450000C94500011241FBE84
S1130080CFEFD0E1DEBFCDBF21E0A0E0B1E001C001
S11300901D92A030B207E1F70E945A000C9496001A
S11300A00C940000E8ECF0E0908195FFFDCF809384
S11300B0CE00089588E98093C90081E890E0909388
S11300C0CD008093CC0078940000FECF1F920F9255
S11300D00FB60F9211242F933F934F935F936F9317
S11300E07F938F939F93AF93BF93EF93FF93CF939C
S11300F0DF931F92CDB7DEB78091CE0089838981CB
S11301000E9452000F90DF91CF91FF91EF91BF9128
S1130110AF919F918F917F916F915F914F913F919B
S11301202F910F900FBE0F901F901895F894FFCF4A
S9030000FC
